{"abi":[{"inputs":[{"internalType":"address","name":"_dapptokenAddress","type":"address"}],"stateMutability":"nonpayable","type":"constructor","name":"constructor"},{"anonymous":false,"inputs":[{"indexed":true,"internalType":"address","name":"previousOwner","type":"address"},{"indexed":true,"internalType":"address","name":"newOwner","type":"address"}],"name":"OwnershipTransferred","type":"event"},{"inputs":[{"internalType":"address","name":"_token","type":"address"}],"name":"addAllowedTokens","outputs":[],"stateMutability":"nonpayable","type":"function"},{"inputs":[{"internalType":"uint256","name":"","type":"uint256"}],"name":"allowedTokens","outputs":[{"internalType":"address","name":"","type":"address"}],"stateMutability":"view","type":"function"},{"inputs":[],"name":"dappToken","outputs":[{"internalType":"contract IERC20","name":"","type":"address"}],"stateMutability":"view","type":"function"},{"inputs":[{"internalType":"address","name":"_user","type":"address"},{"internalType":"address","name":"_tokenAddress","type":"address"}],"name":"getSingleTokenValue","outputs":[{"internalType":"uint256","name":"","type":"uint256"}],"stateMutability":"view","type":"function"},{"inputs":[{"internalType":"address","name":"_token","type":"address"}],"name":"getTokenValueInUSD","outputs":[{"internalType":"uint256","name":"","type":"uint256"},{"internalType":"uint256","name":"","type":"uint256"}],"stateMutability":"view","type":"function"},{"inputs":[{"internalType":"address","name":"_user","type":"address"}],"name":"getUserTotalValue","outputs":[{"internalType":"uint256","name":"","type":"uint256"}],"stateMutability":"nonpayable","type":"function"},{"inputs":[],"name":"issueToken","outputs":[],"stateMutability":"nonpayable","type":"function"},{"inputs":[],"name":"owner","outputs":[{"internalType":"address","name":"","type":"address"}],"stateMutability":"view","type":"function"},{"inputs":[],"name":"renounceOwnership","outputs":[],"stateMutability":"nonpayable","type":"function"},{"inputs":[{"internalType":"address","name":"_token","type":"address"},{"internalType":"address","name":"_priceFeed","type":"address"}],"name":"setPriceFeedContract","outputs":[],"stateMutability":"nonpayable","type":"function"},{"inputs":[{"internalType":"uint256","name":"_amount","type":"uint256"},{"internalType":"address","name":"_token","type":"address"}],"name":"stakeToken","outputs":[],"stateMutability":"nonpayable","type":"function"},{"inputs":[{"internalType":"uint256","name":"","type":"uint256"}],"name":"stakers","outputs":[{"internalType":"address","name":"","type":"address"}],"stateMutability":"view","type":"function"},{"inputs":[{"internalType":"address","name":"","type":"address"},{"internalType":"address","name":"","type":"address"}],"name":"stakingBalance","outputs":[{"internalType":"uint256","name":"","type":"uint256"}],"stateMutability":"view","type":"function"},{"inputs":[{"internalType":"address","name":"_token","type":"address"}],"name":"tokenIsAllowed","outputs":[{"internalType":"bool","name":"","type":"bool"}],"stateMutability":"view","type":"function"},{"inputs":[{"internalType":"address","name":"","type":"address"}],"name":"tokenPriceFeedMapping","outputs":[{"internalType":"address","name":"","type":"address"}],"stateMutability":"view","type":"function"},{"inputs":[{"internalType":"address","name":"newOwner","type":"address"}],"name":"transferOwnership","outputs":[],"stateMutability":"nonpayable","type":"function"},{"inputs":[{"internalType":"address","name":"_token","type":"address"}],"name":"unstakeTokens","outputs":[],"stateMutability":"nonpayable","type":"function"}],"bytecode":"608060405234801561001057600080fd5b5060405161107338038061107383398101604081905261002f916100ad565b6100383361005d565b600580546001600160a01b0319166001600160a01b03929092169190911790556100dd565b600080546001600160a01b038381166001600160a01b0319831681178455604051919092169283917f8be0079c531659141344cd1fd0a4f28419497f9722a3daafe3b4186f6b6457e09190a35050565b6000602082840312156100bf57600080fd5b81516001600160a01b03811681146100d657600080fd5b9392505050565b610f87806100ec6000396000f3fe608060405234801561001057600080fd5b506004361061010b5760003560e01c8063715018a6116100a2578063a1ee8c7811610071578063a1ee8c7814610257578063af3f5e221461025f578063dd5b846714610272578063f2fde38b14610295578063fd5e6dd1146102a857600080fd5b8063715018a614610218578063877dd39d146102205780638da5cb5b146102335780639ee306001461024457600080fd5b80633ec4113b116100de5780633ec4113b146101b75780635e5f2e26146101ca5780635eb186f8146101dd57806368e9affc146101f057600080fd5b8063171e44ea1461011057806327927b3e1461012557806329161a001461016b5780632d1ad8b8146101a4575b600080fd5b61012361011e366004610c4c565b6102bb565b005b61014e610133366004610c4c565b6004602052600090815260409020546001600160a01b031681565b6040516001600160a01b0390911681526020015b60405180910390f35b610196610179366004610c6e565b600360209081526000928352604080842090915290825290205481565b604051908152602001610162565b6101236101b2366004610c4c565b61033f565b6101966101c5366004610c6e565b610457565b61014e6101d8366004610ca1565b6104bb565b60055461014e906001600160a01b031681565b6102036101fe366004610c4c565b6104e5565b60408051928352602083019190915201610162565b6101236105ff565b61012361022e366004610c6e565b610635565b6000546001600160a01b031661014e565b610123610252366004610cba565b61068d565b610123610898565b61019661026d366004610c4c565b6109a4565b610285610280366004610c4c565b610a6d565b6040519015158152602001610162565b6101236102a3366004610c4c565b610ad7565b61014e6102b6366004610ca1565b610b6f565b6000546001600160a01b031633146102ee5760405162461bcd60e51b81526004016102e590610cdd565b60405180910390fd5b6001805480820182556000919091527fb10e2d527612073b26eecdfd717e6a320cf44b4afac2b0732d9fcbe2b7fa0cf60180546001600160a01b0319166001600160a01b0392909216919091179055565b6001600160a01b0381166000908152600360209081526040808320338452909152902054806103b05760405162461bcd60e51b815260206004820152601c60248201527f5374616b696e672062616c616e63652063616e6e6f742062652030210000000060448201526064016102e5565b60405163a9059cbb60e01b8152336004820152602481018290526001600160a01b0383169063a9059cbb90604401602060405180830381600087803b1580156103f857600080fd5b505af115801561040c573d6000803e3d6000fd5b505050506040513d601f19601f820116820180604052508101906104309190610d12565b50506001600160a01b03166000908152600360209081526040808320338452909152812055565b6000806000610465846104e5565b909250905061047581600a610e2e565b6001600160a01b038086166000908152600360209081526040808320938a16835292905220546104a6908490610e3a565b6104b09190610e59565b925050505b92915050565b600181815481106104cb57600080fd5b6000918252602090912001546001600160a01b0316905081565b6001600160a01b038082166000908152600460208190526040808320548151633fabe5a360e21b815291519394859491169283928592849263feaf968c928082019260a0929091829003018186803b15801561054057600080fd5b505afa158015610554573d6000803e3d6000fd5b505050506040513d601f19601f820116820180604052508101906105789190610e95565b50505091505080826001600160a01b031663313ce5676040518163ffffffff1660e01b815260040160206040518083038186803b1580156105b857600080fd5b505afa1580156105cc573d6000803e3d6000fd5b505050506040513d601f19601f820116820180604052508101906105f09190610ee5565b60ff1694509450505050915091565b6000546001600160a01b031633146106295760405162461bcd60e51b81526004016102e590610cdd565b6106336000610b7f565b565b6000546001600160a01b0316331461065f5760405162461bcd60e51b81526004016102e590610cdd565b6001600160a01b03918216600090815260046020526040902080546001600160a01b03191691909216179055565b600082116106dd5760405162461bcd60e51b815260206004820152601a60248201527f416d6f756e74206d757374206d65206d6f7265207468616e203000000000000060448201526064016102e5565b6106e681610a6d565b61076a5760405162461bcd60e51b815260206004820152604960248201527f5468652072657175657374656420746f6b656e2069732063757272656e746c7960448201527f206e6f7420616c6c6f776564206f6e2074686520706c6174666f726d20666f72606482015268207374616b696e672160b81b608482015260a4016102e5565b6040516323b872dd60e01b8152336004820152306024820152604481018390526001600160a01b038216906323b872dd90606401602060405180830381600087803b1580156107b857600080fd5b505af11580156107cc573d6000803e3d6000fd5b505050506040513d601f19601f820116820180604052508101906107f09190610d12565b506107fa33610bcf565b61084157600280546001810182556000919091527f405787fa12a823e0f2b7631cc41b3ba8828b3321ca811111fa75cd3aa3bb5ace0180546001600160a01b031916331790555b6001600160a01b0381166000908152600360209081526040808320338452909152902054610870908390610f08565b6001600160a01b03909116600090815260036020908152604080832033845290915290205550565b6000546001600160a01b031633146108c25760405162461bcd60e51b81526004016102e590610cdd565b60005b6002548110156109a1576000600282815481106108e4576108e4610f20565b60009182526020822001546001600160a01b03169150610903826109a4565b60055460405163a9059cbb60e01b81526001600160a01b0385811660048301526024820184905292935091169063a9059cbb90604401602060405180830381600087803b15801561095357600080fd5b505af1158015610967573d6000803e3d6000fd5b505050506040513d601f19601f8201168201806040525081019061098b9190610d12565b505050808061099990610f36565b9150506108c5565b50565b60006109af82610bcf565b610a095760405162461bcd60e51b815260206004820152602560248201527f4e6f20746f6b656e206973206265696e67207374616b65642062792074686520604482015264757365722160d81b60648201526084016102e5565b6000805b600154811015610a6657610a488460018381548110610a2e57610a2e610f20565b6000918252602090912001546001600160a01b0316610457565b610a529083610f08565b915080610a5e81610f36565b915050610a0d565b5092915050565b6000805b600154811015610ace57826001600160a01b031660018281548110610a9857610a98610f20565b6000918252602090912001546001600160a01b03161415610abc5750600192915050565b80610ac681610f36565b915050610a71565b50600092915050565b6000546001600160a01b03163314610b015760405162461bcd60e51b81526004016102e590610cdd565b6001600160a01b038116610b665760405162461bcd60e51b815260206004820152602660248201527f4f776e61626c653a206e6577206f776e657220697320746865207a65726f206160448201526564647265737360d01b60648201526084016102e5565b6109a181610b7f565b600281815481106104cb57600080fd5b600080546001600160a01b038381166001600160a01b0319831681178455604051919092169283917f8be0079c531659141344cd1fd0a4f28419497f9722a3daafe3b4186f6b6457e09190a35050565b6000805b600254811015610ace57826001600160a01b031660028281548110610bfa57610bfa610f20565b6000918252602090912001546001600160a01b03161415610c1e5750600192915050565b80610c2881610f36565b915050610bd3565b80356001600160a01b0381168114610c4757600080fd5b919050565b600060208284031215610c5e57600080fd5b610c6782610c30565b9392505050565b60008060408385031215610c8157600080fd5b610c8a83610c30565b9150610c9860208401610c30565b90509250929050565b600060208284031215610cb357600080fd5b5035919050565b60008060408385031215610ccd57600080fd5b82359150610c9860208401610c30565b6020808252818101527f4f776e61626c653a2063616c6c6572206973206e6f7420746865206f776e6572604082015260600190565b600060208284031215610d2457600080fd5b81518015158114610c6757600080fd5b634e487b7160e01b600052601160045260246000fd5b600181815b80851115610d85578160001904821115610d6b57610d6b610d34565b80851615610d7857918102915b93841c9390800290610d4f565b509250929050565b600082610d9c575060016104b5565b81610da9575060006104b5565b8160018114610dbf5760028114610dc957610de5565b60019150506104b5565b60ff841115610dda57610dda610d34565b50506001821b6104b5565b5060208310610133831016604e8410600b8410161715610e08575081810a6104b5565b610e128383610d4a565b8060001904821115610e2657610e26610d34565b029392505050565b6000610c678383610d8d565b6000816000190483118215151615610e5457610e54610d34565b500290565b600082610e7657634e487b7160e01b600052601260045260246000fd5b500490565b805169ffffffffffffffffffff81168114610c4757600080fd5b600080600080600060a08688031215610ead57600080fd5b610eb686610e7b565b9450602086015193506040860151925060608601519150610ed960808701610e7b565b90509295509295909350565b600060208284031215610ef757600080fd5b815160ff81168114610c6757600080fd5b60008219821115610f1b57610f1b610d34565b500190565b634e487b7160e01b600052603260045260246000fd5b6000600019821415610f4a57610f4a610d34565b506001019056fea264697066735822122016176f3a6f84860eb4eb7c577d2e3dcc9d8899803506bb5e4b6521e16e16dd5f64736f6c63430008090033","bytecodeSha1":"28d950527ea7d555e8bfca3e4cceffffd2361a59","compiler":{"evm_version":"istanbul","optimizer":{"enabled":true,"runs":200},"version":"0.8.9+commit.e5eed63a"},"contractName":"TokenFarm","language":"Solidity","natspec":{"kind":"dev","methods":{"addAllowedTokens(address)":{"notice":"Function that allows the admin to add address to the list of allowed tokens that can be staked _token: address for the token address to be allowed for staking"},"getSingleTokenValue(address,address)":{"notice":"Function for getting the staking value of an user for a particular token for which we fetch the latest price using chainlink calculation is like => price of the token in usd * staking amount of that token by the user"},"getTokenValueInUSD(address)":{"notice":"Function for getting the usd value for the given token address _token: the address of the token for which the usd value is to be returned"},"getUserTotalValue(address)":{"notice":"Function for getting the total locked value for the user _user: address of the user whose total value needs to be calculated"},"issueToken()":{"notice":"Function for issuing reward tokens to stakers based on their total value locked"},"owner()":{"details":"Returns the address of the current owner."},"renounceOwnership()":{"details":"Leaves the contract without owner. It will not be possible to call `onlyOwner` functions anymore. Can only be called by the current owner. NOTE: Renouncing ownership will leave the contract without an owner, thereby removing any functionality that is only available to the owner."},"setPriceFeedContract(address,address)":{"notice":"Function for setting the contract address for the price feed"},"stakeToken(uint256,address)":{"notice":"Function for staking tokens. _amount: amount of token you want to stake _token: contract address of the token that you want to stake"},"stakingBalance(address,address)":{"notice":"mapping (token-address => mapping(user-address => amount))"},"tokenIsAllowed(address)":{"notice":"Function that returns whether the token for given parameter address is allowed for staking or not _token: address of token for checking the status"},"transferOwnership(address)":{"details":"Transfers ownership of the contract to a new account (`newOwner`). Can only be called by the current owner."},"unstakeTokens(address)":{"notice":"Function for unstaking tokens"}},"version":1},"opcodes":"PUSH1 0x80 PUSH1 0x40 MSTORE CALLVALUE DUP1 ISZERO PUSH2 0x10 JUMPI PUSH1 0x0 DUP1 REVERT JUMPDEST POP PUSH1 0x4 CALLDATASIZE LT PUSH2 0x10B JUMPI PUSH1 0x0 CALLDATALOAD PUSH1 0xE0 SHR DUP1 PUSH4 0x715018A6 GT PUSH2 0xA2 JUMPI DUP1 PUSH4 0xA1EE8C78 GT PUSH2 0x71 JUMPI DUP1 PUSH4 0xA1EE8C78 EQ PUSH2 0x257 JUMPI DUP1 PUSH4 0xAF3F5E22 EQ PUSH2 0x25F JUMPI DUP1 PUSH4 0xDD5B8467 EQ PUSH2 0x272 JUMPI DUP1 PUSH4 0xF2FDE38B EQ PUSH2 0x295 JUMPI DUP1 PUSH4 0xFD5E6DD1 EQ PUSH2 0x2A8 JUMPI PUSH1 0x0 DUP1 REVERT JUMPDEST DUP1 PUSH4 0x715018A6 EQ PUSH2 0x218 JUMPI DUP1 PUSH4 0x877DD39D EQ PUSH2 0x220 JUMPI DUP1 PUSH4 0x8DA5CB5B EQ PUSH2 0x233 JUMPI DUP1 PUSH4 0x9EE30600 EQ PUSH2 0x244 JUMPI PUSH1 0x0 DUP1 REVERT JUMPDEST DUP1 PUSH4 0x3EC4113B GT PUSH2 0xDE JUMPI DUP1 PUSH4 0x3EC4113B EQ PUSH2 0x1B7 JUMPI DUP1 PUSH4 0x5E5F2E26 EQ PUSH2 0x1CA JUMPI DUP1 PUSH4 0x5EB186F8 EQ PUSH2 0x1DD JUMPI DUP1 PUSH4 0x68E9AFFC EQ PUSH2 0x1F0 JUMPI PUSH1 0x0 DUP1 REVERT JUMPDEST DUP1 PUSH4 0x171E44EA EQ PUSH2 0x110 JUMPI DUP1 PUSH4 0x27927B3E EQ PUSH2 0x125 JUMPI DUP1 PUSH4 0x29161A00 EQ PUSH2 0x16B JUMPI DUP1 PUSH4 0x2D1AD8B8 EQ PUSH2 0x1A4 JUMPI JUMPDEST PUSH1 0x0 DUP1 REVERT JUMPDEST PUSH2 0x123 PUSH2 0x11E CALLDATASIZE PUSH1 0x4 PUSH2 0xC4C JUMP JUMPDEST PUSH2 0x2BB JUMP JUMPDEST STOP JUMPDEST PUSH2 0x14E PUSH2 0x133 CALLDATASIZE PUSH1 0x4 PUSH2 0xC4C JUMP JUMPDEST PUSH1 0x4 PUSH1 0x20 MSTORE PUSH1 0x0 SWAP1 DUP2 MSTORE PUSH1 0x40 SWAP1 KECCAK256 SLOAD PUSH1 0x1 PUSH1 0x1 PUSH1 0xA0 SHL SUB AND DUP2 JUMP JUMPDEST PUSH1 0x40 MLOAD PUSH1 0x1 PUSH1 0x1 PUSH1 0xA0 SHL SUB SWAP1 SWAP2 AND DUP2 MSTORE PUSH1 0x20 ADD JUMPDEST PUSH1 0x40 MLOAD DUP1 SWAP2 SUB SWAP1 RETURN JUMPDEST PUSH2 0x196 PUSH2 0x179 CALLDATASIZE PUSH1 0x4 PUSH2 0xC6E JUMP JUMPDEST PUSH1 0x3 PUSH1 0x20 SWAP1 DUP2 MSTORE PUSH1 0x0 SWAP3 DUP4 MSTORE PUSH1 0x40 DUP1 DUP5 KECCAK256 SWAP1 SWAP2 MSTORE SWAP1 DUP3 MSTORE SWAP1 KECCAK256 SLOAD DUP2 JUMP JUMPDEST PUSH1 0x40 MLOAD SWAP1 DUP2 MSTORE PUSH1 0x20 ADD PUSH2 0x162 JUMP JUMPDEST PUSH2 0x123 PUSH2 0x1B2 CALLDATASIZE PUSH1 0x4 PUSH2 0xC4C JUMP JUMPDEST PUSH2 0x33F JUMP JUMPDEST PUSH2 0x196 PUSH2 0x1C5 CALLDATASIZE PUSH1 0x4 PUSH2 0xC6E JUMP JUMPDEST PUSH2 0x457 JUMP JUMPDEST PUSH2 0x14E PUSH2 0x1D8 CALLDATASIZE PUSH1 0x4 PUSH2 0xCA1 JUMP JUMPDEST PUSH2 0x4BB JUMP JUMPDEST PUSH1 0x5 SLOAD PUSH2 0x14E SWAP1 PUSH1 0x1 PUSH1 0x1 PUSH1 0xA0 SHL SUB AND DUP2 JUMP JUMPDEST PUSH2 0x203 PUSH2 0x1FE CALLDATASIZE PUSH1 0x4 PUSH2 0xC4C JUMP JUMPDEST PUSH2 0x4E5 JUMP JUMPDEST PUSH1 0x40 DUP1 MLOAD SWAP3 DUP4 MSTORE PUSH1 0x20 DUP4 ADD SWAP2 SWAP1 SWAP2 MSTORE ADD PUSH2 0x162 JUMP JUMPDEST PUSH2 0x123 PUSH2 0x5FF JUMP JUMPDEST PUSH2 0x123 PUSH2 0x22E CALLDATASIZE PUSH1 0x4 PUSH2 0xC6E JUMP JUMPDEST PUSH2 0x635 JUMP JUMPDEST PUSH1 0x0 SLOAD PUSH1 0x1 PUSH1 0x1 PUSH1 0xA0 SHL SUB AND PUSH2 0x14E JUMP JUMPDEST PUSH2 0x123 PUSH2 0x252 CALLDATASIZE PUSH1 0x4 PUSH2 0xCBA JUMP JUMPDEST PUSH2 0x68D JUMP JUMPDEST PUSH2 0x123 PUSH2 0x898 JUMP JUMPDEST PUSH2 0x196 PUSH2 0x26D CALLDATASIZE PUSH1 0x4 PUSH2 0xC4C JUMP JUMPDEST PUSH2 0x9A4 JUMP JUMPDEST PUSH2 0x285 PUSH2 0x280 CALLDATASIZE PUSH1 0x4 PUSH2 0xC4C JUMP JUMPDEST PUSH2 0xA6D JUMP JUMPDEST PUSH1 0x40 MLOAD SWAP1 ISZERO ISZERO DUP2 MSTORE PUSH1 0x20 ADD PUSH2 0x162 JUMP JUMPDEST PUSH2 0x123 PUSH2 0x2A3 CALLDATASIZE PUSH1 0x4 PUSH2 0xC4C JUMP JUMPDEST PUSH2 0xAD7 JUMP JUMPDEST PUSH2 0x14E PUSH2 0x2B6 CALLDATASIZE PUSH1 0x4 PUSH2 0xCA1 JUMP JUMPDEST PUSH2 0xB6F JUMP JUMPDEST PUSH1 0x0 SLOAD PUSH1 0x1 PUSH1 0x1 PUSH1 0xA0 SHL SUB AND CALLER EQ PUSH2 0x2EE JUMPI PUSH1 0x40 MLOAD PUSH3 0x461BCD PUSH1 0xE5 SHL DUP2 MSTORE PUSH1 0x4 ADD PUSH2 0x2E5 SWAP1 PUSH2 0xCDD JUMP JUMPDEST PUSH1 0x40 MLOAD DUP1 SWAP2 SUB SWAP1 REVERT JUMPDEST PUSH1 0x1 DUP1 SLOAD DUP1 DUP3 ADD DUP3 SSTORE PUSH1 0x0 SWAP2 SWAP1 SWAP2 MSTORE PUSH32 0xB10E2D527612073B26EECDFD717E6A320CF44B4AFAC2B0732D9FCBE2B7FA0CF6 ADD DUP1 SLOAD PUSH1 0x1 PUSH1 0x1 PUSH1 0xA0 SHL SUB NOT AND PUSH1 0x1 PUSH1 0x1 PUSH1 0xA0 SHL SUB SWAP3 SWAP1 SWAP3 AND SWAP2 SWAP1 SWAP2 OR SWAP1 SSTORE JUMP JUMPDEST PUSH1 0x1 PUSH1 0x1 PUSH1 0xA0 SHL SUB DUP2 AND PUSH1 0x0 SWAP1 DUP2 MSTORE PUSH1 0x3 PUSH1 0x20 SWAP1 DUP2 MSTORE PUSH1 0x40 DUP1 DUP4 KECCAK256 CALLER DUP5 MSTORE SWAP1 SWAP2 MSTORE SWAP1 KECCAK256 SLOAD DUP1 PUSH2 0x3B0 JUMPI PUSH1 0x40 MLOAD PUSH3 0x461BCD PUSH1 0xE5 SHL DUP2 MSTORE PUSH1 0x20 PUSH1 0x4 DUP3 ADD MSTORE PUSH1 0x1C PUSH1 0x24 DUP3 ADD MSTORE PUSH32 0x5374616B696E672062616C616E63652063616E6E6F7420626520302100000000 PUSH1 0x44 DUP3 ADD MSTORE PUSH1 0x64 ADD PUSH2 0x2E5 JUMP JUMPDEST PUSH1 0x40 MLOAD PUSH4 0xA9059CBB PUSH1 0xE0 SHL DUP2 MSTORE CALLER PUSH1 0x4 DUP3 ADD MSTORE PUSH1 0x24 DUP2 ADD DUP3 SWAP1 MSTORE PUSH1 0x1 PUSH1 0x1 PUSH1 0xA0 SHL SUB DUP4 AND SWAP1 PUSH4 0xA9059CBB SWAP1 PUSH1 0x44 ADD PUSH1 0x20 PUSH1 0x40 MLOAD DUP1 DUP4 SUB DUP2 PUSH1 0x0 DUP8 DUP1 EXTCODESIZE ISZERO DUP1 ISZERO PUSH2 0x3F8 JUMPI PUSH1 0x0 DUP1 REVERT JUMPDEST POP GAS CALL ISZERO DUP1 ISZERO PUSH2 0x40C JUMPI RETURNDATASIZE PUSH1 0x0 DUP1 RETURNDATACOPY RETURNDATASIZE PUSH1 0x0 REVERT JUMPDEST POP POP POP POP PUSH1 0x40 MLOAD RETURNDATASIZE PUSH1 0x1F NOT PUSH1 0x1F DUP3 ADD AND DUP3 ADD DUP1 PUSH1 0x40 MSTORE POP DUP2 ADD SWAP1 PUSH2 0x430 SWAP2 SWAP1 PUSH2 0xD12 JUMP JUMPDEST POP POP PUSH1 0x1 PUSH1 0x1 PUSH1 0xA0 SHL SUB AND PUSH1 0x0 SWAP1 DUP2 MSTORE PUSH1 0x3 PUSH1 0x20 SWAP1 DUP2 MSTORE PUSH1 0x40 DUP1 DUP4 KECCAK256 CALLER DUP5 MSTORE SWAP1 SWAP2 MSTORE DUP2 KECCAK256 SSTORE JUMP JUMPDEST PUSH1 0x0 DUP1 PUSH1 0x0 PUSH2 0x465 DUP5 PUSH2 0x4E5 JUMP JUMPDEST SWAP1 SWAP3 POP SWAP1 POP PUSH2 0x475 DUP2 PUSH1 0xA PUSH2 0xE2E JUMP JUMPDEST PUSH1 0x1 PUSH1 0x1 PUSH1 0xA0 SHL SUB DUP1 DUP7 AND PUSH1 0x0 SWAP1 DUP2 MSTORE PUSH1 0x3 PUSH1 0x20 SWAP1 DUP2 MSTORE PUSH1 0x40 DUP1 DUP4 KECCAK256 SWAP4 DUP11 AND DUP4 MSTORE SWAP3 SWAP1 MSTORE KECCAK256 SLOAD PUSH2 0x4A6 SWAP1 DUP5 SWAP1 PUSH2 0xE3A JUMP JUMPDEST PUSH2 0x4B0 SWAP2 SWAP1 PUSH2 0xE59 JUMP JUMPDEST SWAP3 POP POP POP JUMPDEST SWAP3 SWAP2 POP POP JUMP JUMPDEST PUSH1 0x1 DUP2 DUP2 SLOAD DUP2 LT PUSH2 0x4CB JUMPI PUSH1 0x0 DUP1 REVERT JUMPDEST PUSH1 0x0 SWAP2 DUP3 MSTORE PUSH1 0x20 SWAP1 SWAP2 KECCAK256 ADD SLOAD PUSH1 0x1 PUSH1 0x1 PUSH1 0xA0 SHL SUB AND SWAP1 POP DUP2 JUMP JUMPDEST PUSH1 0x1 PUSH1 0x1 PUSH1 0xA0 SHL SUB DUP1 DUP3 AND PUSH1 0x0 SWAP1 DUP2 MSTORE PUSH1 0x4 PUSH1 0x20 DUP2 SWAP1 MSTORE PUSH1 0x40 DUP1 DUP4 KECCAK256 SLOAD DUP2 MLOAD PUSH4 0x3FABE5A3 PUSH1 0xE2 SHL DUP2 MSTORE SWAP2 MLOAD SWAP4 SWAP5 DUP6 SWAP5 SWAP2 AND SWAP3 DUP4 SWAP3 DUP6 SWAP3 DUP5 SWAP3 PUSH4 0xFEAF968C SWAP3 DUP1 DUP3 ADD SWAP3 PUSH1 0xA0 SWAP3 SWAP1 SWAP2 DUP3 SWAP1 SUB ADD DUP2 DUP7 DUP1 EXTCODESIZE ISZERO DUP1 ISZERO PUSH2 0x540 JUMPI PUSH1 0x0 DUP1 REVERT JUMPDEST POP GAS STATICCALL ISZERO DUP1 ISZERO PUSH2 0x554 JUMPI RETURNDATASIZE PUSH1 0x0 DUP1 RETURNDATACOPY RETURNDATASIZE PUSH1 0x0 REVERT JUMPDEST POP POP POP POP PUSH1 0x40 MLOAD RETURNDATASIZE PUSH1 0x1F NOT PUSH1 0x1F DUP3 ADD AND DUP3 ADD DUP1 PUSH1 0x40 MSTORE POP DUP2 ADD SWAP1 PUSH2 0x578 SWAP2 SWAP1 PUSH2 0xE95 JUMP JUMPDEST POP POP POP SWAP2 POP POP DUP1 DUP3 PUSH1 0x1 PUSH1 0x1 PUSH1 0xA0 SHL SUB AND PUSH4 0x313CE567 PUSH1 0x40 MLOAD DUP2 PUSH4 0xFFFFFFFF AND PUSH1 0xE0 SHL DUP2 MSTORE PUSH1 0x4 ADD PUSH1 0x20 PUSH1 0x40 MLOAD DUP1 DUP4 SUB DUP2 DUP7 DUP1 EXTCODESIZE ISZERO DUP1 ISZERO PUSH2 0x5B8 JUMPI PUSH1 0x0 DUP1 REVERT JUMPDEST POP GAS STATICCALL ISZERO DUP1 ISZERO PUSH2 0x5CC JUMPI RETURNDATASIZE PUSH1 0x0 DUP1 RETURNDATACOPY RETURNDATASIZE PUSH1 0x0 REVERT JUMPDEST POP POP POP POP PUSH1 0x40 MLOAD RETURNDATASIZE PUSH1 0x1F NOT PUSH1 0x1F DUP3 ADD AND DUP3 ADD DUP1 PUSH1 0x40 MSTORE POP DUP2 ADD SWAP1 PUSH2 0x5F0 SWAP2 SWAP1 PUSH2 0xEE5 JUMP JUMPDEST PUSH1 0xFF AND SWAP5 POP SWAP5 POP POP POP POP SWAP2 POP SWAP2 JUMP JUMPDEST PUSH1 0x0 SLOAD PUSH1 0x1 PUSH1 0x1 PUSH1 0xA0 SHL SUB AND CALLER EQ PUSH2 0x629 JUMPI PUSH1 0x40 MLOAD PUSH3 0x461BCD PUSH1 0xE5 SHL DUP2 MSTORE PUSH1 0x4 ADD PUSH2 0x2E5 SWAP1 PUSH2 0xCDD JUMP JUMPDEST PUSH2 0x633 PUSH1 0x0 PUSH2 0xB7F JUMP JUMPDEST JUMP JUMPDEST PUSH1 0x0 SLOAD PUSH1 0x1 PUSH1 0x1 PUSH1 0xA0 SHL SUB AND CALLER EQ PUSH2 0x65F JUMPI PUSH1 0x40 MLOAD PUSH3 0x461BCD PUSH1 0xE5 SHL DUP2 MSTORE PUSH1 0x4 ADD PUSH2 0x2E5 SWAP1 PUSH2 0xCDD JUMP JUMPDEST PUSH1 0x1 PUSH1 0x1 PUSH1 0xA0 SHL SUB SWAP2 DUP3 AND PUSH1 0x0 SWAP1 DUP2 MSTORE PUSH1 0x4 PUSH1 0x20 MSTORE PUSH1 0x40 SWAP1 KECCAK256 DUP1 SLOAD PUSH1 0x1 PUSH1 0x1 PUSH1 0xA0 SHL SUB NOT AND SWAP2 SWAP1 SWAP3 AND OR SWAP1 SSTORE JUMP JUMPDEST PUSH1 0x0 DUP3 GT PUSH2 0x6DD JUMPI PUSH1 0x40 MLOAD PUSH3 0x461BCD PUSH1 0xE5 SHL DUP2 MSTORE PUSH1 0x20 PUSH1 0x4 DUP3 ADD MSTORE PUSH1 0x1A PUSH1 0x24 DUP3 ADD MSTORE PUSH32 0x416D6F756E74206D757374206D65206D6F7265207468616E2030000000000000 PUSH1 0x44 DUP3 ADD MSTORE PUSH1 0x64 ADD PUSH2 0x2E5 JUMP JUMPDEST PUSH2 0x6E6 DUP2 PUSH2 0xA6D JUMP JUMPDEST PUSH2 0x76A JUMPI PUSH1 0x40 MLOAD PUSH3 0x461BCD PUSH1 0xE5 SHL DUP2 MSTORE PUSH1 0x20 PUSH1 0x4 DUP3 ADD MSTORE PUSH1 0x49 PUSH1 0x24 DUP3 ADD MSTORE PUSH32 0x5468652072657175657374656420746F6B656E2069732063757272656E746C79 PUSH1 0x44 DUP3 ADD MSTORE PUSH32 0x206E6F7420616C6C6F776564206F6E2074686520706C6174666F726D20666F72 PUSH1 0x64 DUP3 ADD MSTORE PUSH9 0x207374616B696E6721 PUSH1 0xB8 SHL PUSH1 0x84 DUP3 ADD MSTORE PUSH1 0xA4 ADD PUSH2 0x2E5 JUMP JUMPDEST PUSH1 0x40 MLOAD PUSH4 0x23B872DD PUSH1 0xE0 SHL DUP2 MSTORE CALLER PUSH1 0x4 DUP3 ADD MSTORE ADDRESS PUSH1 0x24 DUP3 ADD MSTORE PUSH1 0x44 DUP2 ADD DUP4 SWAP1 MSTORE PUSH1 0x1 PUSH1 0x1 PUSH1 0xA0 SHL SUB DUP3 AND SWAP1 PUSH4 0x23B872DD SWAP1 PUSH1 0x64 ADD PUSH1 0x20 PUSH1 0x40 MLOAD DUP1 DUP4 SUB DUP2 PUSH1 0x0 DUP8 DUP1 EXTCODESIZE ISZERO DUP1 ISZERO PUSH2 0x7B8 JUMPI PUSH1 0x0 DUP1 REVERT JUMPDEST POP GAS CALL ISZERO DUP1 ISZERO PUSH2 0x7CC JUMPI RETURNDATASIZE PUSH1 0x0 DUP1 RETURNDATACOPY RETURNDATASIZE PUSH1 0x0 REVERT JUMPDEST POP POP POP POP PUSH1 0x40 MLOAD RETURNDATASIZE PUSH1 0x1F NOT PUSH1 0x1F DUP3 ADD AND DUP3 ADD DUP1 PUSH1 0x40 MSTORE POP DUP2 ADD SWAP1 PUSH2 0x7F0 SWAP2 SWAP1 PUSH2 0xD12 JUMP JUMPDEST POP PUSH2 0x7FA CALLER PUSH2 0xBCF JUMP JUMPDEST PUSH2 0x841 JUMPI PUSH1 0x2 DUP1 SLOAD PUSH1 0x1 DUP2 ADD DUP3 SSTORE PUSH1 0x0 SWAP2 SWAP1 SWAP2 MSTORE PUSH32 0x405787FA12A823E0F2B7631CC41B3BA8828B3321CA811111FA75CD3AA3BB5ACE ADD DUP1 SLOAD PUSH1 0x1 PUSH1 0x1 PUSH1 0xA0 SHL SUB NOT AND CALLER OR SWAP1 SSTORE JUMPDEST PUSH1 0x1 PUSH1 0x1 PUSH1 0xA0 SHL SUB DUP2 AND PUSH1 0x0 SWAP1 DUP2 MSTORE PUSH1 0x3 PUSH1 0x20 SWAP1 DUP2 MSTORE PUSH1 0x40 DUP1 DUP4 KECCAK256 CALLER DUP5 MSTORE SWAP1 SWAP2 MSTORE SWAP1 KECCAK256 SLOAD PUSH2 0x870 SWAP1 DUP4 SWAP1 PUSH2 0xF08 JUMP JUMPDEST PUSH1 0x1 PUSH1 0x1 PUSH1 0xA0 SHL SUB SWAP1 SWAP2 AND PUSH1 0x0 SWAP1 DUP2 MSTORE PUSH1 0x3 PUSH1 0x20 SWAP1 DUP2 MSTORE PUSH1 0x40 DUP1 DUP4 KECCAK256 CALLER DUP5 MSTORE SWAP1 SWAP2 MSTORE SWAP1 KECCAK256 SSTORE POP JUMP JUMPDEST PUSH1 0x0 SLOAD PUSH1 0x1 PUSH1 0x1 PUSH1 0xA0 SHL SUB AND CALLER EQ PUSH2 0x8C2 JUMPI PUSH1 0x40 MLOAD PUSH3 0x461BCD PUSH1 0xE5 SHL DUP2 MSTORE PUSH1 0x4 ADD PUSH2 0x2E5 SWAP1 PUSH2 0xCDD JUMP JUMPDEST PUSH1 0x0 JUMPDEST PUSH1 0x2 SLOAD DUP2 LT ISZERO PUSH2 0x9A1 JUMPI PUSH1 0x0 PUSH1 0x2 DUP3 DUP2 SLOAD DUP2 LT PUSH2 0x8E4 JUMPI PUSH2 0x8E4 PUSH2 0xF20 JUMP JUMPDEST PUSH1 0x0 SWAP2 DUP3 MSTORE PUSH1 0x20 DUP3 KECCAK256 ADD SLOAD PUSH1 0x1 PUSH1 0x1 PUSH1 0xA0 SHL SUB AND SWAP2 POP PUSH2 0x903 DUP3 PUSH2 0x9A4 JUMP JUMPDEST PUSH1 0x5 SLOAD PUSH1 0x40 MLOAD PUSH4 0xA9059CBB PUSH1 0xE0 SHL DUP2 MSTORE PUSH1 0x1 PUSH1 0x1 PUSH1 0xA0 SHL SUB DUP6 DUP2 AND PUSH1 0x4 DUP4 ADD MSTORE PUSH1 0x24 DUP3 ADD DUP5 SWAP1 MSTORE SWAP3 SWAP4 POP SWAP2 AND SWAP1 PUSH4 0xA9059CBB SWAP1 PUSH1 0x44 ADD PUSH1 0x20 PUSH1 0x40 MLOAD DUP1 DUP4 SUB DUP2 PUSH1 0x0 DUP8 DUP1 EXTCODESIZE ISZERO DUP1 ISZERO PUSH2 0x953 JUMPI PUSH1 0x0 DUP1 REVERT JUMPDEST POP GAS CALL ISZERO DUP1 ISZERO PUSH2 0x967 JUMPI RETURNDATASIZE PUSH1 0x0 DUP1 RETURNDATACOPY RETURNDATASIZE PUSH1 0x0 REVERT JUMPDEST POP POP POP POP PUSH1 0x40 MLOAD RETURNDATASIZE PUSH1 0x1F NOT PUSH1 0x1F DUP3 ADD AND DUP3 ADD DUP1 PUSH1 0x40 MSTORE POP DUP2 ADD SWAP1 PUSH2 0x98B SWAP2 SWAP1 PUSH2 0xD12 JUMP JUMPDEST POP POP POP DUP1 DUP1 PUSH2 0x999 SWAP1 PUSH2 0xF36 JUMP JUMPDEST SWAP2 POP POP PUSH2 0x8C5 JUMP JUMPDEST POP JUMP JUMPDEST PUSH1 0x0 PUSH2 0x9AF DUP3 PUSH2 0xBCF JUMP JUMPDEST PUSH2 0xA09 JUMPI PUSH1 0x40 MLOAD PUSH3 0x461BCD PUSH1 0xE5 SHL DUP2 MSTORE PUSH1 0x20 PUSH1 0x4 DUP3 ADD MSTORE PUSH1 0x25 PUSH1 0x24 DUP3 ADD MSTORE PUSH32 0x4E6F20746F6B656E206973206265696E67207374616B65642062792074686520 PUSH1 0x44 DUP3 ADD MSTORE PUSH5 0x7573657221 PUSH1 0xD8 SHL PUSH1 0x64 DUP3 ADD MSTORE PUSH1 0x84 ADD PUSH2 0x2E5 JUMP JUMPDEST PUSH1 0x0 DUP1 JUMPDEST PUSH1 0x1 SLOAD DUP2 LT ISZERO PUSH2 0xA66 JUMPI PUSH2 0xA48 DUP5 PUSH1 0x1 DUP4 DUP2 SLOAD DUP2 LT PUSH2 0xA2E JUMPI PUSH2 0xA2E PUSH2 0xF20 JUMP JUMPDEST PUSH1 0x0 SWAP2 DUP3 MSTORE PUSH1 0x20 SWAP1 SWAP2 KECCAK256 ADD SLOAD PUSH1 0x1 PUSH1 0x1 PUSH1 0xA0 SHL SUB AND PUSH2 0x457 JUMP JUMPDEST PUSH2 0xA52 SWAP1 DUP4 PUSH2 0xF08 JUMP JUMPDEST SWAP2 POP DUP1 PUSH2 0xA5E DUP2 PUSH2 0xF36 JUMP JUMPDEST SWAP2 POP POP PUSH2 0xA0D JUMP JUMPDEST POP SWAP3 SWAP2 POP POP JUMP JUMPDEST PUSH1 0x0 DUP1 JUMPDEST PUSH1 0x1 SLOAD DUP2 LT ISZERO PUSH2 0xACE JUMPI DUP3 PUSH1 0x1 PUSH1 0x1 PUSH1 0xA0 SHL SUB AND PUSH1 0x1 DUP3 DUP2 SLOAD DUP2 LT PUSH2 0xA98 JUMPI PUSH2 0xA98 PUSH2 0xF20 JUMP JUMPDEST PUSH1 0x0 SWAP2 DUP3 MSTORE PUSH1 0x20 SWAP1 SWAP2 KECCAK256 ADD SLOAD PUSH1 0x1 PUSH1 0x1 PUSH1 0xA0 SHL SUB AND EQ ISZERO PUSH2 0xABC JUMPI POP PUSH1 0x1 SWAP3 SWAP2 POP POP JUMP JUMPDEST DUP1 PUSH2 0xAC6 DUP2 PUSH2 0xF36 JUMP JUMPDEST SWAP2 POP POP PUSH2 0xA71 JUMP JUMPDEST POP PUSH1 0x0 SWAP3 SWAP2 POP POP JUMP JUMPDEST PUSH1 0x0 SLOAD PUSH1 0x1 PUSH1 0x1 PUSH1 0xA0 SHL SUB AND CALLER EQ PUSH2 0xB01 JUMPI PUSH1 0x40 MLOAD PUSH3 0x461BCD PUSH1 0xE5 SHL DUP2 MSTORE PUSH1 0x4 ADD PUSH2 0x2E5 SWAP1 PUSH2 0xCDD JUMP JUMPDEST PUSH1 0x1 PUSH1 0x1 PUSH1 0xA0 SHL SUB DUP2 AND PUSH2 0xB66 JUMPI PUSH1 0x40 MLOAD PUSH3 0x461BCD PUSH1 0xE5 SHL DUP2 MSTORE PUSH1 0x20 PUSH1 0x4 DUP3 ADD MSTORE PUSH1 0x26 PUSH1 0x24 DUP3 ADD MSTORE PUSH32 0x4F776E61626C653A206E6577206F776E657220697320746865207A65726F2061 PUSH1 0x44 DUP3 ADD MSTORE PUSH6 0x646472657373 PUSH1 0xD0 SHL PUSH1 0x64 DUP3 ADD MSTORE PUSH1 0x84 ADD PUSH2 0x2E5 JUMP JUMPDEST PUSH2 0x9A1 DUP2 PUSH2 0xB7F JUMP JUMPDEST PUSH1 0x2 DUP2 DUP2 SLOAD DUP2 LT PUSH2 0x4CB JUMPI PUSH1 0x0 DUP1 REVERT JUMPDEST PUSH1 0x0 DUP1 SLOAD PUSH1 0x1 PUSH1 0x1 PUSH1 0xA0 SHL SUB DUP4 DUP2 AND PUSH1 0x1 PUSH1 0x1 PUSH1 0xA0 SHL SUB NOT DUP4 AND DUP2 OR DUP5 SSTORE PUSH1 0x40 MLOAD SWAP2 SWAP1 SWAP3 AND SWAP3 DUP4 SWAP2 PUSH32 0x8BE0079C531659141344CD1FD0A4F28419497F9722A3DAAFE3B4186F6B6457E0 SWAP2 SWAP1 LOG3 POP POP JUMP JUMPDEST PUSH1 0x0 DUP1 JUMPDEST PUSH1 0x2 SLOAD DUP2 LT ISZERO PUSH2 0xACE JUMPI DUP3 PUSH1 0x1 PUSH1 0x1 PUSH1 0xA0 SHL SUB AND PUSH1 0x2 DUP3 DUP2 SLOAD DUP2 LT PUSH2 0xBFA JUMPI PUSH2 0xBFA PUSH2 0xF20 JUMP JUMPDEST PUSH1 0x0 SWAP2 DUP3 MSTORE PUSH1 0x20 SWAP1 SWAP2 KECCAK256 ADD SLOAD PUSH1 0x1 PUSH1 0x1 PUSH1 0xA0 SHL SUB AND EQ ISZERO PUSH2 0xC1E JUMPI POP PUSH1 0x1 SWAP3 SWAP2 POP POP JUMP JUMPDEST DUP1 PUSH2 0xC28 DUP2 PUSH2 0xF36 JUMP JUMPDEST SWAP2 POP POP PUSH2 0xBD3 JUMP JUMPDEST DUP1 CALLDATALOAD PUSH1 0x1 PUSH1 0x1 PUSH1 0xA0 SHL SUB DUP2 AND DUP2 EQ PUSH2 0xC47 JUMPI PUSH1 0x0 DUP1 REVERT JUMPDEST SWAP2 SWAP1 POP JUMP JUMPDEST PUSH1 0x0 PUSH1 0x20 DUP3 DUP5 SUB SLT ISZERO PUSH2 0xC5E JUMPI PUSH1 0x0 DUP1 REVERT JUMPDEST PUSH2 0xC67 DUP3 PUSH2 0xC30 JUMP JUMPDEST SWAP4 SWAP3 POP POP POP JUMP JUMPDEST PUSH1 0x0 DUP1 PUSH1 0x40 DUP4 DUP6 SUB SLT ISZERO PUSH2 0xC81 JUMPI PUSH1 0x0 DUP1 REVERT JUMPDEST PUSH2 0xC8A DUP4 PUSH2 0xC30 JUMP JUMPDEST SWAP2 POP PUSH2 0xC98 PUSH1 0x20 DUP5 ADD PUSH2 0xC30 JUMP JUMPDEST SWAP1 POP SWAP3 POP SWAP3 SWAP1 POP JUMP JUMPDEST PUSH1 0x0 PUSH1 0x20 DUP3 DUP5 SUB SLT ISZERO PUSH2 0xCB3 JUMPI PUSH1 0x0 DUP1 REVERT JUMPDEST POP CALLDATALOAD SWAP2 SWAP1 POP JUMP JUMPDEST PUSH1 0x0 DUP1 PUSH1 0x40 DUP4 DUP6 SUB SLT ISZERO PUSH2 0xCCD JUMPI PUSH1 0x0 DUP1 REVERT JUMPDEST DUP3 CALLDATALOAD SWAP2 POP PUSH2 0xC98 PUSH1 0x20 DUP5 ADD PUSH2 0xC30 JUMP JUMPDEST PUSH1 0x20 DUP1 DUP3 MSTORE DUP2 DUP2 ADD MSTORE PUSH32 0x4F776E61626C653A2063616C6C6572206973206E6F7420746865206F776E6572 PUSH1 0x40 DUP3 ADD MSTORE PUSH1 0x60 ADD SWAP1 JUMP JUMPDEST PUSH1 0x0 PUSH1 0x20 DUP3 DUP5 SUB SLT ISZERO PUSH2 0xD24 JUMPI PUSH1 0x0 DUP1 REVERT JUMPDEST DUP2 MLOAD DUP1 ISZERO ISZERO DUP2 EQ PUSH2 0xC67 JUMPI PUSH1 0x0 DUP1 REVERT JUMPDEST PUSH4 0x4E487B71 PUSH1 0xE0 SHL PUSH1 0x0 MSTORE PUSH1 0x11 PUSH1 0x4 MSTORE PUSH1 0x24 PUSH1 0x0 REVERT JUMPDEST PUSH1 0x1 DUP2 DUP2 JUMPDEST DUP1 DUP6 GT ISZERO PUSH2 0xD85 JUMPI DUP2 PUSH1 0x0 NOT DIV DUP3 GT ISZERO PUSH2 0xD6B JUMPI PUSH2 0xD6B PUSH2 0xD34 JUMP JUMPDEST DUP1 DUP6 AND ISZERO PUSH2 0xD78 JUMPI SWAP2 DUP2 MUL SWAP2 JUMPDEST SWAP4 DUP5 SHR SWAP4 SWAP1 DUP1 MUL SWAP1 PUSH2 0xD4F JUMP JUMPDEST POP SWAP3 POP SWAP3 SWAP1 POP JUMP JUMPDEST PUSH1 0x0 DUP3 PUSH2 0xD9C JUMPI POP PUSH1 0x1 PUSH2 0x4B5 JUMP JUMPDEST DUP2 PUSH2 0xDA9 JUMPI POP PUSH1 0x0 PUSH2 0x4B5 JUMP JUMPDEST DUP2 PUSH1 0x1 DUP2 EQ PUSH2 0xDBF JUMPI PUSH1 0x2 DUP2 EQ PUSH2 0xDC9 JUMPI PUSH2 0xDE5 JUMP JUMPDEST PUSH1 0x1 SWAP2 POP POP PUSH2 0x4B5 JUMP JUMPDEST PUSH1 0xFF DUP5 GT ISZERO PUSH2 0xDDA JUMPI PUSH2 0xDDA PUSH2 0xD34 JUMP JUMPDEST POP POP PUSH1 0x1 DUP3 SHL PUSH2 0x4B5 JUMP JUMPDEST POP PUSH1 0x20 DUP4 LT PUSH2 0x133 DUP4 LT AND PUSH1 0x4E DUP5 LT PUSH1 0xB DUP5 LT AND OR ISZERO PUSH2 0xE08 JUMPI POP DUP2 DUP2 EXP PUSH2 0x4B5 JUMP JUMPDEST PUSH2 0xE12 DUP4 DUP4 PUSH2 0xD4A JUMP JUMPDEST DUP1 PUSH1 0x0 NOT DIV DUP3 GT ISZERO PUSH2 0xE26 JUMPI PUSH2 0xE26 PUSH2 0xD34 JUMP JUMPDEST MUL SWAP4 SWAP3 POP POP POP JUMP JUMPDEST PUSH1 0x0 PUSH2 0xC67 DUP4 DUP4 PUSH2 0xD8D JUMP JUMPDEST PUSH1 0x0 DUP2 PUSH1 0x0 NOT DIV DUP4 GT DUP3 ISZERO ISZERO AND ISZERO PUSH2 0xE54 JUMPI PUSH2 0xE54 PUSH2 0xD34 JUMP JUMPDEST POP MUL SWAP1 JUMP JUMPDEST PUSH1 0x0 DUP3 PUSH2 0xE76 JUMPI PUSH4 0x4E487B71 PUSH1 0xE0 SHL PUSH1 0x0 MSTORE PUSH1 0x12 PUSH1 0x4 MSTORE PUSH1 0x24 PUSH1 0x0 REVERT JUMPDEST POP DIV SWAP1 JUMP JUMPDEST DUP1 MLOAD PUSH10 0xFFFFFFFFFFFFFFFFFFFF DUP2 AND DUP2 EQ PUSH2 0xC47 JUMPI PUSH1 0x0 DUP1 REVERT JUMPDEST PUSH1 0x0 DUP1 PUSH1 0x0 DUP1 PUSH1 0x0 PUSH1 0xA0 DUP7 DUP9 SUB SLT ISZERO PUSH2 0xEAD JUMPI PUSH1 0x0 DUP1 REVERT JUMPDEST PUSH2 0xEB6 DUP7 PUSH2 0xE7B JUMP JUMPDEST SWAP5 POP PUSH1 0x20 DUP7 ADD MLOAD SWAP4 POP PUSH1 0x40 DUP7 ADD MLOAD SWAP3 POP PUSH1 0x60 DUP7 ADD MLOAD SWAP2 POP PUSH2 0xED9 PUSH1 0x80 DUP8 ADD PUSH2 0xE7B JUMP JUMPDEST SWAP1 POP SWAP3 SWAP6 POP SWAP3 SWAP6 SWAP1 SWAP4 POP JUMP JUMPDEST PUSH1 0x0 PUSH1 0x20 DUP3 DUP5 SUB SLT ISZERO PUSH2 0xEF7 JUMPI PUSH1 0x0 DUP1 REVERT JUMPDEST DUP2 MLOAD PUSH1 0xFF DUP2 AND DUP2 EQ PUSH2 0xC67 JUMPI PUSH1 0x0 DUP1 REVERT JUMPDEST PUSH1 0x0 DUP3 NOT DUP3 GT ISZERO PUSH2 0xF1B JUMPI PUSH2 0xF1B PUSH2 0xD34 JUMP JUMPDEST POP ADD SWAP1 JUMP JUMPDEST PUSH4 0x4E487B71 PUSH1 0xE0 SHL PUSH1 0x0 MSTORE PUSH1 0x32 PUSH1 0x4 MSTORE PUSH1 0x24 PUSH1 0x0 REVERT JUMPDEST PUSH1 0x0 PUSH1 0x0 NOT DUP3 EQ ISZERO PUSH2 0xF4A JUMPI PUSH2 0xF4A PUSH2 0xD34 JUMP JUMPDEST POP PUSH1 0x1 ADD SWAP1 JUMP INVALID LOG2 PUSH5 0x6970667358 0x22 SLT KECCAK256 AND OR PUSH16 0x3A6F84860EB4EB7C577D2E3DCC9D8899 DUP1 CALLDATALOAD MOD 0xBB 0x5E 0x4B PUSH6 0x21E16E16DD5F PUSH5 0x736F6C6343 STOP ADDMOD MULMOD STOP CALLER ","sha1":"9c809ee2f8e1c9db2d72e97d2da067d6ba4950ca","source":"/**\nThis very contract allows you to \n- stake tokens\n- unstake tokens\n- issueTokens i.e issue token rewards\n- addAllowedTokens for adding token addresses thsn can be staked on the platform\n- getEthValue which gives us the value in eth for the staked tokens on the platform\n */\n// SPDX-License-Identifier: MIT\n\nimport \"@openzeppelin/contracts/access/Ownable.sol\";\nimport \"@openzeppelin/contracts/token/ERC20/IERC20.sol\";\nimport \"@chainlink/contracts/src/v0.8/interfaces/AggregatorV3Interface.sol\";\n\npragma solidity ^0.8.0;\n\ncontract TokenFarm is Ownable {\n    address[] public allowedTokens;\n    address[] public stakers; // storing the list of staker addresses;\n    // for storing the staker amount data that's been staked\n    /**\n      mapping (token-address => mapping(user-address => amount))\n     */\n    mapping(address => mapping(address => uint256)) public stakingBalance;\n    mapping(address => address) public tokenPriceFeedMapping;\n    IERC20 public dappToken;\n\n    constructor(address _dapptokenAddress) {\n        dappToken = IERC20(_dapptokenAddress);\n    }\n\n    /**\n    Function for setting the contract address for the price feed\n     */\n\n    function setPriceFeedContract(address _token, address _priceFeed)\n        public\n        onlyOwner\n    {\n        tokenPriceFeedMapping[_token] = _priceFeed;\n    }\n\n    /**\n    Function for issuing reward tokens to stakers based on their total value locked\n     */\n    function issueToken() public onlyOwner {\n        for (\n            uint256 stakersIndex = 0;\n            stakersIndex < stakers.length;\n            stakersIndex++\n        ) {\n            address recipient = stakers[stakersIndex];\n            uint256 totalValue = getUserTotalValue(recipient);\n            dappToken.transfer(recipient, totalValue); // tranfering the token equal to the value staked by the user for dapp token\n        }\n    }\n\n    /**\n    Function for getting the total locked value for the user\n    _user: address of the user whose total value needs to be calculated\n     */\n\n    function getUserTotalValue(address _user) public returns (uint256) {\n        require(userIsStaker(_user), \"No token is being staked by the user!\");\n        uint256 totalValue = 0;\n        for (\n            uint256 allowedTokensIndex = 0;\n            allowedTokensIndex < allowedTokens.length;\n            allowedTokensIndex++\n        ) {\n            totalValue += getSingleTokenValue(\n                _user,\n                allowedTokens[allowedTokensIndex]\n            );\n        }\n        return totalValue;\n    }\n\n    /**\n    Function for getting the staking value of an user for a particular token\n    for which we fetch the latest price using chainlink\n    calculation is like => price of the token in usd * staking amount of that token by the user\n    */\n\n    function getSingleTokenValue(address _user, address _tokenAddress)\n        public\n        view\n        returns (uint256)\n    {\n        (uint256 price, uint256 decimals) = getTokenValueInUSD(_tokenAddress);\n        return ((stakingBalance[_tokenAddress][_user] * price) /\n            (10**decimals));\n    }\n\n    /**\n    Function for getting the usd value for the given token address\n    _token: the address of the token for which the usd value is to be returned\n     */\n\n    function getTokenValueInUSD(address _token)\n        public\n        view\n        returns (uint256, uint256)\n    {\n        address priceFeedAddress = tokenPriceFeedMapping[_token];\n        AggregatorV3Interface priceFeed = AggregatorV3Interface(\n            priceFeedAddress\n        );\n        (, int256 price, , , ) = priceFeed.latestRoundData();\n        // as decimals returns uint8, so we typecasted to uint256\n        return (uint256(price), uint256(priceFeed.decimals()));\n    }\n\n    /**\n  Function for staking tokens.\n  _amount: amount of token you want to stake\n  _token: contract address of the token that you want to stake\n   */\n    function stakeToken(uint256 _amount, address _token) public {\n        require(_amount > 0, \"Amount must me more than 0\");\n        require(\n            tokenIsAllowed(_token),\n            \"The requested token is currently not allowed on the platform for staking!\"\n        );\n\n        /** \n        using the transferFrom function for transfering the particular token,\n        from the user address to the contract.\n\n        Here we are using the IERC20(_token) because we are using the IERC20 interface to wrap the token address\n        so that we can call the required functions for that token\n        */\n        IERC20(_token).transferFrom(msg.sender, address(this), _amount);\n        if (userIsStaker(msg.sender) == false) {\n            stakers.push(msg.sender);\n        }\n        // updating the staking value for the user based on the token address\n        stakingBalance[_token][msg.sender] =\n            stakingBalance[_token][msg.sender] +\n            _amount;\n    }\n\n    /**\n      Function for unstaking tokens\n     */\n\n    function unstakeTokens(address _token) public {\n        uint256 balance = stakingBalance[_token][msg.sender];\n        require(balance > 0, \"Staking balance cannot be 0!\");\n        IERC20(_token).transfer(msg.sender, balance);\n        stakingBalance[_token][msg.sender] = 0;\n    }\n\n    /**\n    Function checks if the user is present in the stakers list or not\n     */\n\n    function userIsStaker(address _user) internal view returns (bool) {\n        for (uint256 userIndex = 0; userIndex < stakers.length; userIndex++) {\n            if (stakers[userIndex] == _user) {\n                return true;\n            }\n        }\n        return false;\n    }\n\n    /**\n    Function that allows the admin to add address to the list of allowed tokens that can be staked\n    _token: address for the token address to be allowed for staking\n     */\n\n    function addAllowedTokens(address _token) public onlyOwner {\n        allowedTokens.push(_token);\n    }\n\n    /**\n    Function that returns whether the token for given parameter address is allowed for staking or not\n    _token: address of token for checking the status\n     */\n    function tokenIsAllowed(address _token) public view returns (bool) {\n        for (\n            uint256 allowedTokenIndex = 0;\n            allowedTokenIndex < allowedTokens.length;\n            allowedTokenIndex++\n        ) {\n            if (allowedTokens[allowedTokenIndex] == _token) {\n                return true;\n            }\n        }\n        return false;\n    }\n}\n","sourcePath":"contracts/TokenFarm.sol","type":"contract","deployment":{"address":"0x83ff226C66d6e1072991955c71320FC963A6591d","chainid":"42","blockHeight":27917785}}